{
  "contractName": "EthStreamShop",
  "abi": [
    {
      "inputs": [],
      "stateMutability": "payable",
      "type": "constructor"
    },
    {
      "inputs": [],
      "name": "buyer",
      "outputs": [
        {
          "internalType": "address payable",
          "name": "",
          "type": "address"
        }
      ],
      "stateMutability": "view",
      "type": "function"
    },
    {
      "inputs": [
        {
          "internalType": "uint256",
          "name": "",
          "type": "uint256"
        }
      ],
      "name": "merchandise",
      "outputs": [
        {
          "internalType": "string",
          "name": "name",
          "type": "string"
        },
        {
          "internalType": "uint256",
          "name": "merchNum",
          "type": "uint256"
        },
        {
          "internalType": "uint256",
          "name": "amountToSell",
          "type": "uint256"
        },
        {
          "internalType": "uint256",
          "name": "price",
          "type": "uint256"
        },
        {
          "internalType": "bool",
          "name": "isSold",
          "type": "bool"
        },
        {
          "internalType": "uint256",
          "name": "timeLeft",
          "type": "uint256"
        },
        {
          "internalType": "uint256",
          "name": "commissionFee",
          "type": "uint256"
        },
        {
          "internalType": "address payable",
          "name": "buyer",
          "type": "address"
        },
        {
          "internalType": "address payable",
          "name": "seller",
          "type": "address"
        },
        {
          "internalType": "address payable",
          "name": "owner",
          "type": "address"
        }
      ],
      "stateMutability": "view",
      "type": "function"
    },
    {
      "inputs": [],
      "name": "merchandiseNumber",
      "outputs": [
        {
          "internalType": "uint256",
          "name": "",
          "type": "uint256"
        }
      ],
      "stateMutability": "view",
      "type": "function"
    },
    {
      "inputs": [],
      "name": "owner",
      "outputs": [
        {
          "internalType": "address",
          "name": "",
          "type": "address"
        }
      ],
      "stateMutability": "view",
      "type": "function"
    },
    {
      "inputs": [],
      "name": "seller",
      "outputs": [
        {
          "internalType": "address payable",
          "name": "",
          "type": "address"
        }
      ],
      "stateMutability": "view",
      "type": "function"
    },
    {
      "inputs": [
        {
          "internalType": "address",
          "name": "_seller",
          "type": "address"
        },
        {
          "internalType": "string",
          "name": "_merchName",
          "type": "string"
        },
        {
          "internalType": "uint256",
          "name": "_price",
          "type": "uint256"
        },
        {
          "internalType": "uint256",
          "name": "_amount",
          "type": "uint256"
        },
        {
          "internalType": "uint256",
          "name": "_timeLeft",
          "type": "uint256"
        }
      ],
      "name": "addMerch",
      "outputs": [
        {
          "internalType": "bool",
          "name": "",
          "type": "bool"
        }
      ],
      "stateMutability": "nonpayable",
      "type": "function"
    },
    {
      "inputs": [
        {
          "internalType": "uint256",
          "name": "_merchandiseNumber",
          "type": "uint256"
        },
        {
          "internalType": "uint256",
          "name": "_amount",
          "type": "uint256"
        }
      ],
      "name": "buyMerch",
      "outputs": [],
      "stateMutability": "payable",
      "type": "function"
    },
    {
      "inputs": [
        {
          "internalType": "uint256",
          "name": "_merchNumber",
          "type": "uint256"
        }
      ],
      "name": "getMerch",
      "outputs": [
        {
          "internalType": "string",
          "name": "name",
          "type": "string"
        },
        {
          "internalType": "uint256",
          "name": "merchNum",
          "type": "uint256"
        },
        {
          "internalType": "uint256",
          "name": "amountToSell",
          "type": "uint256"
        },
        {
          "internalType": "uint256",
          "name": "price",
          "type": "uint256"
        },
        {
          "internalType": "bool",
          "name": "isSold",
          "type": "bool"
        },
        {
          "internalType": "uint256",
          "name": "timeLeft",
          "type": "uint256"
        },
        {
          "internalType": "address",
          "name": "_seller",
          "type": "address"
        }
      ],
      "stateMutability": "view",
      "type": "function"
    }
  ],
  "bytecode": "0x6080604052336000806101000a81548173ffffffffffffffffffffffffffffffffffffffff021916908373ffffffffffffffffffffffffffffffffffffffff160217905550600060038190555061177b8061005b6000396000f3fe60806040526004361061007b5760003560e01c80638bce71f41161004e5780638bce71f4146101595780638da5cb5b14610175578063b1a4b59f146101a0578063c32378d4146101cb5761007b565b806308551a53146100805780637150d8ae146100ab57806379210118146100d65780637a4248811461011c575b600080fd5b34801561008c57600080fd5b5061009561020e565b6040516100a29190610d5f565b60405180910390f35b3480156100b757600080fd5b506100c0610234565b6040516100cd9190610d5f565b60405180910390f35b3480156100e257600080fd5b506100fd60048036038101906100f89190610dc4565b61025a565b6040516101139a99989796959493929190610eb4565b60405180910390f35b34801561012857600080fd5b50610143600480360381019061013e91906110ca565b6103a3565b6040516101509190611161565b60405180910390f35b610173600480360381019061016e919061117c565b610695565b005b34801561018157600080fd5b5061018a610ad7565b60405161019791906111cb565b60405180910390f35b3480156101ac57600080fd5b506101b5610afb565b6040516101c291906111e6565b60405180910390f35b3480156101d757600080fd5b506101f260048036038101906101ed9190610dc4565b610b01565b6040516102059796959493929190611201565b60405180910390f35b600160009054906101000a900473ffffffffffffffffffffffffffffffffffffffff1681565b600260009054906101000a900473ffffffffffffffffffffffffffffffffffffffff1681565b600460205280600052604060002060009150905080600001805461027d906112a6565b80601f01602080910402602001604051908101604052809291908181526020018280546102a9906112a6565b80156102f65780601f106102cb576101008083540402835291602001916102f6565b820191906000526020600020905b8154815290600101906020018083116102d957829003601f168201915b5050505050908060010154908060020154908060030154908060040160009054906101000a900460ff16908060050154908060060154908060070160009054906101000a900473ffffffffffffffffffffffffffffffffffffffff16908060080160009054906101000a900473ffffffffffffffffffffffffffffffffffffffff16908060090160009054906101000a900473ffffffffffffffffffffffffffffffffffffffff1690508a565b60008060009054906101000a900473ffffffffffffffffffffffffffffffffffffffff1673ffffffffffffffffffffffffffffffffffffffff163373ffffffffffffffffffffffffffffffffffffffff1614610434576040517f08c379a000000000000000000000000000000000000000000000000000000000815260040161042b90611324565b60405180910390fd5b6040518061014001604052808681526020016003548152602001848152602001858152602001600015158152602001603c846104709190611373565b4261047b91906113cd565b8152602001606460028761048f9190611373565b6104999190611452565b81526020013373ffffffffffffffffffffffffffffffffffffffff1681526020018773ffffffffffffffffffffffffffffffffffffffff16815260200160008054906101000a900473ffffffffffffffffffffffffffffffffffffffff1673ffffffffffffffffffffffffffffffffffffffff168152506004600060035481526020019081526020016000206000820151816000019080519060200190610541929190610c7b565b5060208201518160010155604082015181600201556060820151816003015560808201518160040160006101000a81548160ff02191690831515021790555060a0820151816005015560c0820151816006015560e08201518160070160006101000a81548173ffffffffffffffffffffffffffffffffffffffff021916908373ffffffffffffffffffffffffffffffffffffffff1602179055506101008201518160080160006101000a81548173ffffffffffffffffffffffffffffffffffffffff021916908373ffffffffffffffffffffffffffffffffffffffff1602179055506101208201518160090160006101000a81548173ffffffffffffffffffffffffffffffffffffffff021916908373ffffffffffffffffffffffffffffffffffffffff16021790555090505060016003600082825461068191906113cd565b925050819055506001905095945050505050565b600015156004600084815260200190815260200160002060040160009054906101000a900460ff161515146106ff576040517f08c379a00000000000000000000000000000000000000000000000000000000081526004016106f6906114cf565b60405180910390fd5b4260046000848152602001908152602001600020600501541015610758576040517f08c379a000000000000000000000000000000000000000000000000000000000815260040161074f90611561565b60405180910390fd5b60006004600084815260200190815260200160002060020154116107b1576040517f08c379a00000000000000000000000000000000000000000000000000000000081526004016107a8906115cd565b60405180910390fd5b60008054906101000a900473ffffffffffffffffffffffffffffffffffffffff1673ffffffffffffffffffffffffffffffffffffffff163373ffffffffffffffffffffffffffffffffffffffff161415610840576040517f08c379a00000000000000000000000000000000000000000000000000000000081526004016108379061165f565b60405180910390fd5b6004600083815260200190815260200160002060080160009054906101000a900473ffffffffffffffffffffffffffffffffffffffff1673ffffffffffffffffffffffffffffffffffffffff163373ffffffffffffffffffffffffffffffffffffffff1614156108e5576040517f08c379a00000000000000000000000000000000000000000000000000000000081526004016108dc906116f1565b60405180910390fd5b6004600083815260200190815260200160002060080160009054906101000a900473ffffffffffffffffffffffffffffffffffffffff1673ffffffffffffffffffffffffffffffffffffffff166108fc6004600085815260200190815260200160002060060154600460008681526020019081526020016000206003015461096d9190611711565b9081150290604051600060405180830381858888f19350505050158015610998573d6000803e3d6000fd5b50336004600084815260200190815260200160002060070160006101000a81548173ffffffffffffffffffffffffffffffffffffffff021916908373ffffffffffffffffffffffffffffffffffffffff1602179055506004600083815260200190815260200160002060090160009054906101000a900473ffffffffffffffffffffffffffffffffffffffff1673ffffffffffffffffffffffffffffffffffffffff166108fc60046000858152602001908152602001600020600601549081150290604051600060405180830381858888f19350505050158015610a80573d6000803e3d6000fd5b50806004600084815260200190815260200160002060020154610aa39190611711565b5060016004600084815260200190815260200160002060040160006101000a81548160ff0219169083151502179055505050565b60008054906101000a900473ffffffffffffffffffffffffffffffffffffffff1681565b60035481565b6060600080600080600080600460008981526020019081526020016000206000018054610b2d906112a6565b80601f0160208091040260200160405190810160405280929190818152602001828054610b59906112a6565b8015610ba65780601f10610b7b57610100808354040283529160200191610ba6565b820191906000526020600020905b815481529060010190602001808311610b8957829003601f168201915b505050505096506004600089815260200190815260200160002060010154955060046000898152602001908152602001600020600201549450600460008981526020019081526020016000206003015493506004600089815260200190815260200160002060040160009054906101000a900460ff169250600460008981526020019081526020016000206005015491506004600089815260200190815260200160002060080160009054906101000a900473ffffffffffffffffffffffffffffffffffffffff169050919395979092949650565b828054610c87906112a6565b90600052602060002090601f016020900481019282610ca95760008555610cf0565b82601f10610cc257805160ff1916838001178555610cf0565b82800160010185558215610cf0579182015b82811115610cef578251825591602001919060010190610cd4565b5b509050610cfd9190610d01565b5090565b5b80821115610d1a576000816000905550600101610d02565b5090565b600073ffffffffffffffffffffffffffffffffffffffff82169050919050565b6000610d4982610d1e565b9050919050565b610d5981610d3e565b82525050565b6000602082019050610d746000830184610d50565b92915050565b6000604051905090565b600080fd5b600080fd5b6000819050919050565b610da181610d8e565b8114610dac57600080fd5b50565b600081359050610dbe81610d98565b92915050565b600060208284031215610dda57610dd9610d84565b5b6000610de884828501610daf565b91505092915050565b600081519050919050565b600082825260208201905092915050565b60005b83811015610e2b578082015181840152602081019050610e10565b83811115610e3a576000848401525b50505050565b6000601f19601f8301169050919050565b6000610e5c82610df1565b610e668185610dfc565b9350610e76818560208601610e0d565b610e7f81610e40565b840191505092915050565b610e9381610d8e565b82525050565b60008115159050919050565b610eae81610e99565b82525050565b6000610140820190508181036000830152610ecf818d610e51565b9050610ede602083018c610e8a565b610eeb604083018b610e8a565b610ef8606083018a610e8a565b610f056080830189610ea5565b610f1260a0830188610e8a565b610f1f60c0830187610e8a565b610f2c60e0830186610d50565b610f3a610100830185610d50565b610f48610120830184610d50565b9b9a5050505050505050505050565b6000610f6282610d1e565b9050919050565b610f7281610f57565b8114610f7d57600080fd5b50565b600081359050610f8f81610f69565b92915050565b600080fd5b600080fd5b7f4e487b7100000000000000000000000000000000000000000000000000000000600052604160045260246000fd5b610fd782610e40565b810181811067ffffffffffffffff82111715610ff657610ff5610f9f565b5b80604052505050565b6000611009610d7a565b90506110158282610fce565b919050565b600067ffffffffffffffff82111561103557611034610f9f565b5b61103e82610e40565b9050602081019050919050565b82818337600083830152505050565b600061106d6110688461101a565b610fff565b90508281526020810184848401111561108957611088610f9a565b5b61109484828561104b565b509392505050565b600082601f8301126110b1576110b0610f95565b5b81356110c184826020860161105a565b91505092915050565b600080600080600060a086880312156110e6576110e5610d84565b5b60006110f488828901610f80565b955050602086013567ffffffffffffffff81111561111557611114610d89565b5b6111218882890161109c565b945050604061113288828901610daf565b935050606061114388828901610daf565b925050608061115488828901610daf565b9150509295509295909350565b60006020820190506111766000830184610ea5565b92915050565b6000806040838503121561119357611192610d84565b5b60006111a185828601610daf565b92505060206111b285828601610daf565b9150509250929050565b6111c581610f57565b82525050565b60006020820190506111e060008301846111bc565b92915050565b60006020820190506111fb6000830184610e8a565b92915050565b600060e082019050818103600083015261121b818a610e51565b905061122a6020830189610e8a565b6112376040830188610e8a565b6112446060830187610e8a565b6112516080830186610ea5565b61125e60a0830185610e8a565b61126b60c08301846111bc565b98975050505050505050565b7f4e487b7100000000000000000000000000000000000000000000000000000000600052602260045260246000fd5b600060028204905060018216806112be57607f821691505b602082108114156112d2576112d1611277565b5b50919050565b7f4d757374206265206f776e657220746f20616464206d65726368616e64697365600082015250565b600061130e602083610dfc565b9150611319826112d8565b602082019050919050565b6000602082019050818103600083015261133d81611301565b9050919050565b7f4e487b7100000000000000000000000000000000000000000000000000000000600052601160045260246000fd5b600061137e82610d8e565b915061138983610d8e565b9250817fffffffffffffffffffffffffffffffffffffffffffffffffffffffffffffffff04831182151516156113c2576113c1611344565b5b828202905092915050565b60006113d882610d8e565b91506113e383610d8e565b9250827fffffffffffffffffffffffffffffffffffffffffffffffffffffffffffffffff0382111561141857611417611344565b5b828201905092915050565b7f4e487b7100000000000000000000000000000000000000000000000000000000600052601260045260246000fd5b600061145d82610d8e565b915061146883610d8e565b92508261147857611477611423565b5b828204905092915050565b7f4d65726368616e64697365206973206e6f7420617661696c61626c6500000000600082015250565b60006114b9601c83610dfc565b91506114c482611483565b602082019050919050565b600060208201905081810360008301526114e8816114ac565b9050919050565b7f54696d65206973206f76657220666f722074686973206d65726368616e64697360008201527f6500000000000000000000000000000000000000000000000000000000000000602082015250565b600061154b602183610dfc565b9150611556826114ef565b604082019050919050565b6000602082019050818103600083015261157a8161153e565b9050919050565b7f4f7574206f66206d65726368616e646973650000000000000000000000000000600082015250565b60006115b7601283610dfc565b91506115c282611581565b602082019050919050565b600060208201905081810360008301526115e6816115aa565b9050919050565b7f4f776e65722063616e6e6f74207075726368617365206d65726368616e64697360008201527f6500000000000000000000000000000000000000000000000000000000000000602082015250565b6000611649602183610dfc565b9150611654826115ed565b604082019050919050565b600060208201905081810360008301526116788161163c565b9050919050565b7f53656c6c65722063616e6e6f7420627579207468656972206f776e2070726f6460008201527f7563740000000000000000000000000000000000000000000000000000000000602082015250565b60006116db602383610dfc565b91506116e68261167f565b604082019050919050565b6000602082019050818103600083015261170a816116ce565b9050919050565b600061171c82610d8e565b915061172783610d8e565b92508282101561173a57611739611344565b5b82820390509291505056fea2646970667358221220c3f3c1e08b52a47e1b27162697fda721f1d3b4c72ab217e1511eb37089d54c5664736f6c634300080b0033",
  "immutableReferences": {},
  "source": "// SPDX-License-Identifier: MIT\npragma solidity ^0.8.6;\n\n/*\n  Contract:\n    -Use Chainlink to display current price of Eth/USD\n    -Allow seller to input price\n    -Tranfers money from buyer to seller\n    -Contract gets 20% commission for items sold\n    -Struct of item information\n    -Time limit for item listed (block.timestamp)\n*/\n\ncontract EthStreamShop {\n  // State variables\n  address public owner;\n  address payable public seller;\n  address payable public buyer;\n\n// Merchandise number for each item to track\n  uint public merchandiseNumber;\n\n//Assigns a number to each merchandise added \n  mapping(uint => Merchandise) public merchandise;\n\n// Information on each merchandise for sell\n  struct Merchandise {\n    string name;\n    uint merchNum;\n    uint amountToSell;\n    uint price;\n    bool isSold;\n    uint timeLeft;\n    uint commissionFee;\n    address payable buyer;\n    address payable seller;\n    address payable owner;\n  }\n\n\n\n  // Assign deployer of the contract as the owner\n  // Set merchandise number to default of 0\n  constructor() payable {\n    owner = msg.sender;\n    merchandiseNumber = 0;\n  }\n\n\n  /* Function to add merch for sale with following information:\n      -Name\n      -Merch number\n      -Amount for sale\n      -Price -> convert to Eth\n      -Availablility\n      -Time limit\n      -Commission fee\n      -Buyer address\n      -Seller address\n      -Owner address\n    *Only owner of contract can add merchandise\n    *Increment merchandise number by one\n    *Confirm merchandise is added\n  */\n\n  function addMerch(address _seller, string memory _merchName, uint _price, uint _amount, uint _timeLeft) public returns(bool) {\n\n    require(msg.sender == owner, \"Must be owner to add merchandise\");\n\n     merchandise[merchandiseNumber] = Merchandise({\n      name: _merchName,\n      merchNum: merchandiseNumber,\n      amountToSell: _amount,\n      price: _price,\n      isSold: false,\n      timeLeft: block.timestamp + (_timeLeft * 60 seconds),\n      commissionFee: (_price * 2)/100,\n      buyer: payable(msg.sender),\n      seller: payable(_seller),\n      owner: payable (owner)\n     });\n\n     merchandiseNumber += 1;\n     return true;\n  }\n\n  /* Function to buy merch:\n    -Only available if time is not expired\n    -Must have enough merchandise to sell\n    -Owner gets 20% of merch price sold\n    -Seller gets price - commission\n    -Buyer must have sufficient funds\n    - Mark merchandise to sold\n    -Subtract amount bought from supply\n    -Owner of contract cannot buy merchandise\n    -Seller of merchandise cannot buy their own product\n  */\n  function buyMerch(uint _merchandiseNumber, uint _amount) payable public {\n    require(merchandise[_merchandiseNumber].isSold == false, \"Merchandise is not available\");\n    require(merchandise[_merchandiseNumber].timeLeft >= block.timestamp, \"Time is over for this merchandise\");\n    require(merchandise[_merchandiseNumber].amountToSell > 0, \"Out of merchandise\");\n    require(msg.sender != owner, \"Owner cannot purchase merchandise\");\n    require(msg.sender != merchandise[_merchandiseNumber].seller, \"Seller cannot buy their own product\");\n\n    merchandise[_merchandiseNumber].seller.transfer(merchandise[_merchandiseNumber].price - merchandise[_merchandiseNumber].commissionFee);\n    merchandise[_merchandiseNumber].buyer = payable(msg.sender);\n    merchandise[_merchandiseNumber].owner.transfer(merchandise[_merchandiseNumber].commissionFee);\n    merchandise[_merchandiseNumber].amountToSell - _amount;\n    merchandise[_merchandiseNumber].isSold = true;\n  }\n\n// Function to get merchandise\n  function getMerch(uint _merchNumber) public view returns(string memory name, uint merchNum, uint amountToSell, uint price, bool isSold, uint timeLeft, address _seller) {\n   name =  merchandise[_merchNumber].name;\n   merchNum = merchandise[_merchNumber].merchNum;\n   amountToSell = merchandise[_merchNumber].amountToSell;\n   price = merchandise[_merchNumber].price;\n   isSold = merchandise[_merchNumber].isSold;\n   timeLeft = merchandise[_merchNumber].timeLeft;\n   _seller = merchandise[_merchNumber].seller;\n\n   return(name, merchNum, amountToSell, price, isSold, timeLeft, _seller);\n  \n  }\n}\n\n",
  "sourcePath": "/Users/shih-yuhwang/Portfolio/EthStreamShop/contracts/EthStreamShop.sol",
  "compiler": {
    "name": "solc",
    "version": "0.8.11+commit.d7f03943.Emscripten.clang"
  },
  "schemaVersion": "3.4.3",
  "updatedAt": "2022-01-04T15:41:45.988Z",
  "devdoc": {
    "kind": "dev",
    "methods": {},
    "version": 1
  },
  "userdoc": {
    "kind": "user",
    "methods": {},
    "version": 1
  }
}