{
  "contractName": "EthStreamShop",
  "abi": [
    {
      "inputs": [],
      "stateMutability": "payable",
      "type": "constructor",
      "payable": true
    },
    {
      "anonymous": false,
      "inputs": [
        {
          "indexed": false,
          "internalType": "uint256",
          "name": "_merchNum",
          "type": "uint256"
        }
      ],
      "name": "LogMerchForSale",
      "type": "event"
    },
    {
      "anonymous": false,
      "inputs": [
        {
          "indexed": false,
          "internalType": "uint256",
          "name": "_merchNum",
          "type": "uint256"
        }
      ],
      "name": "LogMerchSold",
      "type": "event"
    },
    {
      "inputs": [],
      "name": "buyer",
      "outputs": [
        {
          "internalType": "address payable",
          "name": "",
          "type": "address"
        }
      ],
      "stateMutability": "view",
      "type": "function",
      "constant": true
    },
    {
      "inputs": [
        {
          "internalType": "uint256",
          "name": "",
          "type": "uint256"
        }
      ],
      "name": "merchandise",
      "outputs": [
        {
          "internalType": "string",
          "name": "name",
          "type": "string"
        },
        {
          "internalType": "uint256",
          "name": "merchNum",
          "type": "uint256"
        },
        {
          "internalType": "uint256",
          "name": "amountToSell",
          "type": "uint256"
        },
        {
          "internalType": "uint256",
          "name": "price",
          "type": "uint256"
        },
        {
          "internalType": "bool",
          "name": "isSold",
          "type": "bool"
        },
        {
          "internalType": "uint256",
          "name": "timeLeft",
          "type": "uint256"
        },
        {
          "internalType": "uint256",
          "name": "commissionFee",
          "type": "uint256"
        },
        {
          "internalType": "address payable",
          "name": "buyer",
          "type": "address"
        },
        {
          "internalType": "address payable",
          "name": "seller",
          "type": "address"
        },
        {
          "internalType": "address payable",
          "name": "owner",
          "type": "address"
        }
      ],
      "stateMutability": "view",
      "type": "function",
      "constant": true
    },
    {
      "inputs": [],
      "name": "merchandiseNumber",
      "outputs": [
        {
          "internalType": "uint256",
          "name": "",
          "type": "uint256"
        }
      ],
      "stateMutability": "view",
      "type": "function",
      "constant": true
    },
    {
      "inputs": [],
      "name": "owner",
      "outputs": [
        {
          "internalType": "address",
          "name": "",
          "type": "address"
        }
      ],
      "stateMutability": "view",
      "type": "function",
      "constant": true
    },
    {
      "inputs": [],
      "name": "seller",
      "outputs": [
        {
          "internalType": "address payable",
          "name": "",
          "type": "address"
        }
      ],
      "stateMutability": "view",
      "type": "function",
      "constant": true
    },
    {
      "inputs": [
        {
          "internalType": "address",
          "name": "_seller",
          "type": "address"
        },
        {
          "internalType": "string",
          "name": "_merchName",
          "type": "string"
        },
        {
          "internalType": "uint256",
          "name": "_price",
          "type": "uint256"
        },
        {
          "internalType": "uint256",
          "name": "_amount",
          "type": "uint256"
        },
        {
          "internalType": "uint256",
          "name": "_timeLeft",
          "type": "uint256"
        }
      ],
      "name": "addMerch",
      "outputs": [
        {
          "internalType": "bool",
          "name": "",
          "type": "bool"
        }
      ],
      "stateMutability": "nonpayable",
      "type": "function"
    },
    {
      "inputs": [
        {
          "internalType": "uint256",
          "name": "_merchandiseNumber",
          "type": "uint256"
        },
        {
          "internalType": "uint256",
          "name": "_amount",
          "type": "uint256"
        }
      ],
      "name": "buyMerch",
      "outputs": [],
      "stateMutability": "payable",
      "type": "function",
      "payable": true
    },
    {
      "inputs": [
        {
          "internalType": "uint256",
          "name": "_merchNumber",
          "type": "uint256"
        }
      ],
      "name": "getMerch",
      "outputs": [
        {
          "internalType": "string",
          "name": "name",
          "type": "string"
        },
        {
          "internalType": "uint256",
          "name": "merchNum",
          "type": "uint256"
        },
        {
          "internalType": "uint256",
          "name": "amountToSell",
          "type": "uint256"
        },
        {
          "internalType": "uint256",
          "name": "price",
          "type": "uint256"
        },
        {
          "internalType": "bool",
          "name": "isSold",
          "type": "bool"
        },
        {
          "internalType": "uint256",
          "name": "timeLeft",
          "type": "uint256"
        },
        {
          "internalType": "address",
          "name": "_seller",
          "type": "address"
        }
      ],
      "stateMutability": "view",
      "type": "function",
      "constant": true
    }
  ],
  "bytecode": "0x6080604052336000806101000a81548173ffffffffffffffffffffffffffffffffffffffff021916908373ffffffffffffffffffffffffffffffffffffffff16021790555060006003819055506117ed8061005b6000396000f3fe60806040526004361061007b5760003560e01c80638bce71f41161004e5780638bce71f4146101595780638da5cb5b14610175578063b1a4b59f146101a0578063c32378d4146101cb5761007b565b806308551a53146100805780637150d8ae146100ab57806379210118146100d65780637a4248811461011c575b600080fd5b34801561008c57600080fd5b5061009561020e565b6040516100a29190610dd1565b60405180910390f35b3480156100b757600080fd5b506100c0610234565b6040516100cd9190610dd1565b60405180910390f35b3480156100e257600080fd5b506100fd60048036038101906100f89190610e36565b61025a565b6040516101139a99989796959493929190610f26565b60405180910390f35b34801561012857600080fd5b50610143600480360381019061013e919061113c565b6103a3565b60405161015091906111d3565b60405180910390f35b610173600480360381019061016e91906111ee565b6106ce565b005b34801561018157600080fd5b5061018a610b49565b604051610197919061123d565b60405180910390f35b3480156101ac57600080fd5b506101b5610b6d565b6040516101c29190611258565b60405180910390f35b3480156101d757600080fd5b506101f260048036038101906101ed9190610e36565b610b73565b6040516102059796959493929190611273565b60405180910390f35b600160009054906101000a900473ffffffffffffffffffffffffffffffffffffffff1681565b600260009054906101000a900473ffffffffffffffffffffffffffffffffffffffff1681565b600460205280600052604060002060009150905080600001805461027d90611318565b80601f01602080910402602001604051908101604052809291908181526020018280546102a990611318565b80156102f65780601f106102cb576101008083540402835291602001916102f6565b820191906000526020600020905b8154815290600101906020018083116102d957829003601f168201915b5050505050908060010154908060020154908060030154908060040160009054906101000a900460ff16908060050154908060060154908060070160009054906101000a900473ffffffffffffffffffffffffffffffffffffffff16908060080160009054906101000a900473ffffffffffffffffffffffffffffffffffffffff16908060090160009054906101000a900473ffffffffffffffffffffffffffffffffffffffff1690508a565b60008060009054906101000a900473ffffffffffffffffffffffffffffffffffffffff1673ffffffffffffffffffffffffffffffffffffffff163373ffffffffffffffffffffffffffffffffffffffff1614610434576040517f08c379a000000000000000000000000000000000000000000000000000000000815260040161042b90611396565b60405180910390fd5b6040518061014001604052808681526020016003548152602001848152602001858152602001600015158152602001603c8461047091906113e5565b4261047b919061143f565b8152602001606460028761048f91906113e5565b61049991906114c4565b81526020013373ffffffffffffffffffffffffffffffffffffffff1681526020018773ffffffffffffffffffffffffffffffffffffffff16815260200160008054906101000a900473ffffffffffffffffffffffffffffffffffffffff1673ffffffffffffffffffffffffffffffffffffffff168152506004600060035481526020019081526020016000206000820151816000019080519060200190610541929190610ced565b5060208201518160010155604082015181600201556060820151816003015560808201518160040160006101000a81548160ff02191690831515021790555060a0820151816005015560c0820151816006015560e08201518160070160006101000a81548173ffffffffffffffffffffffffffffffffffffffff021916908373ffffffffffffffffffffffffffffffffffffffff1602179055506101008201518160080160006101000a81548173ffffffffffffffffffffffffffffffffffffffff021916908373ffffffffffffffffffffffffffffffffffffffff1602179055506101208201518160090160006101000a81548173ffffffffffffffffffffffffffffffffffffffff021916908373ffffffffffffffffffffffffffffffffffffffff160217905550905050600160036000828254610681919061143f565b925050819055507f9562f6437896ce0ad5f0e36828ab57f7517f65e518fad8f2d7b6d23911b240d36003546040516106b99190611258565b60405180910390a16001905095945050505050565b600015156004600084815260200190815260200160002060040160009054906101000a900460ff16151514610738576040517f08c379a000000000000000000000000000000000000000000000000000000000815260040161072f90611541565b60405180910390fd5b4260046000848152602001908152602001600020600501541015610791576040517f08c379a0000000000000000000000000000000000000000000000000000000008152600401610788906115d3565b60405180910390fd5b60006004600084815260200190815260200160002060020154116107ea576040517f08c379a00000000000000000000000000000000000000000000000000000000081526004016107e19061163f565b60405180910390fd5b60008054906101000a900473ffffffffffffffffffffffffffffffffffffffff1673ffffffffffffffffffffffffffffffffffffffff163373ffffffffffffffffffffffffffffffffffffffff161415610879576040517f08c379a0000000000000000000000000000000000000000000000000000000008152600401610870906116d1565b60405180910390fd5b6004600083815260200190815260200160002060080160009054906101000a900473ffffffffffffffffffffffffffffffffffffffff1673ffffffffffffffffffffffffffffffffffffffff163373ffffffffffffffffffffffffffffffffffffffff16141561091e576040517f08c379a000000000000000000000000000000000000000000000000000000000815260040161091590611763565b60405180910390fd5b6004600083815260200190815260200160002060080160009054906101000a900473ffffffffffffffffffffffffffffffffffffffff1673ffffffffffffffffffffffffffffffffffffffff166108fc600460008581526020019081526020016000206006015460046000868152602001908152602001600020600301546109a69190611783565b9081150290604051600060405180830381858888f193505050501580156109d1573d6000803e3d6000fd5b50336004600084815260200190815260200160002060070160006101000a81548173ffffffffffffffffffffffffffffffffffffffff021916908373ffffffffffffffffffffffffffffffffffffffff1602179055506004600083815260200190815260200160002060090160009054906101000a900473ffffffffffffffffffffffffffffffffffffffff1673ffffffffffffffffffffffffffffffffffffffff166108fc60046000858152602001908152602001600020600601549081150290604051600060405180830381858888f19350505050158015610ab9573d6000803e3d6000fd5b50806004600084815260200190815260200160002060020154610adc9190611783565b5060016004600084815260200190815260200160002060040160006101000a81548160ff0219169083151502179055507f54e900b836ce71a6316577f2900cb8c2fe51bd1dd61aaaebd13288ea12488cca600354604051610b3d9190611258565b60405180910390a15050565b60008054906101000a900473ffffffffffffffffffffffffffffffffffffffff1681565b60035481565b6060600080600080600080600460008981526020019081526020016000206000018054610b9f90611318565b80601f0160208091040260200160405190810160405280929190818152602001828054610bcb90611318565b8015610c185780601f10610bed57610100808354040283529160200191610c18565b820191906000526020600020905b815481529060010190602001808311610bfb57829003601f168201915b505050505096506004600089815260200190815260200160002060010154955060046000898152602001908152602001600020600201549450600460008981526020019081526020016000206003015493506004600089815260200190815260200160002060040160009054906101000a900460ff169250600460008981526020019081526020016000206005015491506004600089815260200190815260200160002060080160009054906101000a900473ffffffffffffffffffffffffffffffffffffffff169050919395979092949650565b828054610cf990611318565b90600052602060002090601f016020900481019282610d1b5760008555610d62565b82601f10610d3457805160ff1916838001178555610d62565b82800160010185558215610d62579182015b82811115610d61578251825591602001919060010190610d46565b5b509050610d6f9190610d73565b5090565b5b80821115610d8c576000816000905550600101610d74565b5090565b600073ffffffffffffffffffffffffffffffffffffffff82169050919050565b6000610dbb82610d90565b9050919050565b610dcb81610db0565b82525050565b6000602082019050610de66000830184610dc2565b92915050565b6000604051905090565b600080fd5b600080fd5b6000819050919050565b610e1381610e00565b8114610e1e57600080fd5b50565b600081359050610e3081610e0a565b92915050565b600060208284031215610e4c57610e4b610df6565b5b6000610e5a84828501610e21565b91505092915050565b600081519050919050565b600082825260208201905092915050565b60005b83811015610e9d578082015181840152602081019050610e82565b83811115610eac576000848401525b50505050565b6000601f19601f8301169050919050565b6000610ece82610e63565b610ed88185610e6e565b9350610ee8818560208601610e7f565b610ef181610eb2565b840191505092915050565b610f0581610e00565b82525050565b60008115159050919050565b610f2081610f0b565b82525050565b6000610140820190508181036000830152610f41818d610ec3565b9050610f50602083018c610efc565b610f5d604083018b610efc565b610f6a606083018a610efc565b610f776080830189610f17565b610f8460a0830188610efc565b610f9160c0830187610efc565b610f9e60e0830186610dc2565b610fac610100830185610dc2565b610fba610120830184610dc2565b9b9a5050505050505050505050565b6000610fd482610d90565b9050919050565b610fe481610fc9565b8114610fef57600080fd5b50565b60008135905061100181610fdb565b92915050565b600080fd5b600080fd5b7f4e487b7100000000000000000000000000000000000000000000000000000000600052604160045260246000fd5b61104982610eb2565b810181811067ffffffffffffffff8211171561106857611067611011565b5b80604052505050565b600061107b610dec565b90506110878282611040565b919050565b600067ffffffffffffffff8211156110a7576110a6611011565b5b6110b082610eb2565b9050602081019050919050565b82818337600083830152505050565b60006110df6110da8461108c565b611071565b9050828152602081018484840111156110fb576110fa61100c565b5b6111068482856110bd565b509392505050565b600082601f83011261112357611122611007565b5b81356111338482602086016110cc565b91505092915050565b600080600080600060a0868803121561115857611157610df6565b5b600061116688828901610ff2565b955050602086013567ffffffffffffffff81111561118757611186610dfb565b5b6111938882890161110e565b94505060406111a488828901610e21565b93505060606111b588828901610e21565b92505060806111c688828901610e21565b9150509295509295909350565b60006020820190506111e86000830184610f17565b92915050565b6000806040838503121561120557611204610df6565b5b600061121385828601610e21565b925050602061122485828601610e21565b9150509250929050565b61123781610fc9565b82525050565b6000602082019050611252600083018461122e565b92915050565b600060208201905061126d6000830184610efc565b92915050565b600060e082019050818103600083015261128d818a610ec3565b905061129c6020830189610efc565b6112a96040830188610efc565b6112b66060830187610efc565b6112c36080830186610f17565b6112d060a0830185610efc565b6112dd60c083018461122e565b98975050505050505050565b7f4e487b7100000000000000000000000000000000000000000000000000000000600052602260045260246000fd5b6000600282049050600182168061133057607f821691505b60208210811415611344576113436112e9565b5b50919050565b7f4d757374206265206f776e657220746f20616464206d65726368616e64697365600082015250565b6000611380602083610e6e565b915061138b8261134a565b602082019050919050565b600060208201905081810360008301526113af81611373565b9050919050565b7f4e487b7100000000000000000000000000000000000000000000000000000000600052601160045260246000fd5b60006113f082610e00565b91506113fb83610e00565b9250817fffffffffffffffffffffffffffffffffffffffffffffffffffffffffffffffff0483118215151615611434576114336113b6565b5b828202905092915050565b600061144a82610e00565b915061145583610e00565b9250827fffffffffffffffffffffffffffffffffffffffffffffffffffffffffffffffff0382111561148a576114896113b6565b5b828201905092915050565b7f4e487b7100000000000000000000000000000000000000000000000000000000600052601260045260246000fd5b60006114cf82610e00565b91506114da83610e00565b9250826114ea576114e9611495565b5b828204905092915050565b7f4d65726368616e64697365206973206e6f7420617661696c61626c6500000000600082015250565b600061152b601c83610e6e565b9150611536826114f5565b602082019050919050565b6000602082019050818103600083015261155a8161151e565b9050919050565b7f54696d65206973206f76657220666f722074686973206d65726368616e64697360008201527f6500000000000000000000000000000000000000000000000000000000000000602082015250565b60006115bd602183610e6e565b91506115c882611561565b604082019050919050565b600060208201905081810360008301526115ec816115b0565b9050919050565b7f4f7574206f66206d65726368616e646973650000000000000000000000000000600082015250565b6000611629601283610e6e565b9150611634826115f3565b602082019050919050565b600060208201905081810360008301526116588161161c565b9050919050565b7f4f776e65722063616e6e6f74207075726368617365206d65726368616e64697360008201527f6500000000000000000000000000000000000000000000000000000000000000602082015250565b60006116bb602183610e6e565b91506116c68261165f565b604082019050919050565b600060208201905081810360008301526116ea816116ae565b9050919050565b7f53656c6c65722063616e6e6f7420627579207468656972206f776e2070726f6460008201527f7563740000000000000000000000000000000000000000000000000000000000602082015250565b600061174d602383610e6e565b9150611758826116f1565b604082019050919050565b6000602082019050818103600083015261177c81611740565b9050919050565b600061178e82610e00565b915061179983610e00565b9250828210156117ac576117ab6113b6565b5b82820390509291505056fea26469706673582212203cd86d58c1126ae76a49ca5b7539135c965832ec2df375ecc20edbc2e51c06af64736f6c634300080b0033",
  "immutableReferences": {},
  "source": "// SPDX-License-Identifier: MIT\npragma solidity ^0.8.6;\n\n/** \n  Contract:\n    *Use Chainlink to display current price of Eth/USD interface\n    *Allow seller to input price\n    *Tranfers money from buyer to seller\n    *Contract gets 20% commission for items sold\n    *Struct of item information\n    *Time limit for item listed (block.timestamp)\n**/\n\n// Chainlink price feed interface\ninterface PriceFeed {\n  function getLatestPrice() external view returns(uint);\n}\ncontract EthStreamShop {\n  // State variables\n  address public owner;\n  address payable public seller;\n  address payable public buyer;\n\n// Merchandise number for each item to track\n  uint public merchandiseNumber;\n\n//Assigns a number to each merchandise added \n  mapping(uint => Merchandise) public merchandise;\n\n// Information on each merchandise for sell\n  struct Merchandise {\n    string name;\n    uint merchNum;\n    uint amountToSell;\n    uint price;\n    bool isSold;\n    uint timeLeft;\n    uint commissionFee;\n    address payable buyer;\n    address payable seller;\n    address payable owner;\n  }\n\n// Events to keep track of merchandise\nevent LogMerchForSale(uint _merchNum);\nevent LogMerchSold(uint _merchNum);\n\n\n  // Assign deployer of the contract as the owner\n  // Set merchandise number to default of 0\n  constructor() payable {\n    owner = msg.sender;\n    merchandiseNumber = 0;\n  }\n\n\n  /* Function to add merch for sale with following information:\n      -Name\n      -Merch number\n      -Amount for sale\n      -Price -> convert to Eth\n      -Availablility\n      -Time limit in minutes\n      -Commission fee\n      -Buyer address\n      -Seller address\n      -Owner address\n    *Only owner of contract can add merchandise\n    *Increment merchandise number by one\n    *Confirm merchandise is added\n  */\n\n  function addMerch(address _seller, string memory _merchName, uint _price, uint _amount, uint _timeLeft) public returns(bool) {\n\n    require(msg.sender == owner, \"Must be owner to add merchandise\");\n\n     merchandise[merchandiseNumber] = Merchandise({\n      name: _merchName,\n      merchNum: merchandiseNumber,\n      amountToSell: _amount,\n      price: _price,\n      isSold: false,\n      timeLeft: block.timestamp + (_timeLeft * 60 seconds),\n      commissionFee: (_price * 2)/100,\n      buyer: payable(msg.sender),\n      seller: payable(_seller),\n      owner: payable (owner)\n     });\n\n     merchandiseNumber += 1;\n     emit LogMerchForSale(merchandiseNumber);\n     return true;\n  }\n\n  /* Function to buy merch:\n    -Only available if time is not expired\n    -Must have enough merchandise to sell\n    -Owner gets 20% of merch price sold\n    -Seller gets price - commission\n    -Buyer must have sufficient funds\n    - Mark merchandise to sold\n    -Subtract amount bought from supply\n    -Owner of contract cannot buy merchandise\n    -Seller of merchandise cannot buy their own product\n  */\n  function buyMerch(uint _merchandiseNumber, uint _amount) payable public {\n    require(merchandise[_merchandiseNumber].isSold == false, \"Merchandise is not available\");\n    require(merchandise[_merchandiseNumber].timeLeft >= block.timestamp, \"Time is over for this merchandise\");\n    require(merchandise[_merchandiseNumber].amountToSell > 0, \"Out of merchandise\");\n    require(msg.sender != owner, \"Owner cannot purchase merchandise\");\n    require(msg.sender != merchandise[_merchandiseNumber].seller, \"Seller cannot buy their own product\");\n\n    merchandise[_merchandiseNumber].seller.transfer(merchandise[_merchandiseNumber].price - merchandise[_merchandiseNumber].commissionFee);\n    merchandise[_merchandiseNumber].buyer = payable(msg.sender);\n    merchandise[_merchandiseNumber].owner.transfer(merchandise[_merchandiseNumber].commissionFee);\n    merchandise[_merchandiseNumber].amountToSell - _amount;\n    merchandise[_merchandiseNumber].isSold = true;\n\n    emit LogMerchSold(merchandiseNumber);\n    \n  }\n\n// Function to get merchandise\n  function getMerch(uint _merchNumber) public view returns(string memory name, uint merchNum, uint amountToSell, uint price, bool isSold, uint timeLeft, address _seller) {\n   name =  merchandise[_merchNumber].name;\n   merchNum = merchandise[_merchNumber].merchNum;\n   amountToSell = merchandise[_merchNumber].amountToSell;\n   price = merchandise[_merchNumber].price;\n   isSold = merchandise[_merchNumber].isSold;\n   timeLeft = merchandise[_merchNumber].timeLeft;\n   _seller = merchandise[_merchNumber].seller;\n\n   return(name, merchNum, amountToSell, price, isSold, timeLeft, _seller);\n  \n  }\n}\n\n",
  "sourcePath": "/Users/shih-yuhwang/Portfolio/EthStreamShop/contracts/EthStreamShop.sol",
  "compiler": {
    "name": "solc",
    "version": "0.8.11+commit.d7f03943.Emscripten.clang"
  },
  "schemaVersion": "3.4.3",
  "updatedAt": "2022-01-05T22:39:51.956Z",
  "networkType": "ethereum",
  "devdoc": {
    "kind": "dev",
    "methods": {},
    "version": 1
  },
  "userdoc": {
    "kind": "user",
    "methods": {},
    "version": 1
  }
}